:020000040800F2
:10000000B8040020A1010008171200080F12000810
:1000100013120008890200084917000800000000B8
:100020000000000000000000000000001B1200089B
:100030008D02000800000000191200081D120008BF
:10004000BB010008BB010008BB010008BB010008A0
:10005000BB010008BB010008BB010008BB01000890
:10006000BB010008BB010008BB010008BB01000880
:10007000BB010008BB010008BB010008BB01000870
:10008000BB010008BB010008BB010008BB01000860
:10009000BB010008BB010008BB010008BB01000850
:1000A000BB010008BB010008BB010008BB01000840
:1000B000BB010008BB010008BB010008BB01000830
:1000C000BB010008BB010008BB010008BB01000820
:1000D000BB010008BB010008BB0100082D17000888
:1000E000BB010008BB010008BB010008BB01000800
:1000F000BB010008BB010008BB010008BB010008F0
:10010000BB010008BB010008BB010008BB010008DF
:10011000BB010008BB010008BB010008BB010008CF
:10012000BB010008BB010008BB010008BB010008BF
:10013000BB010008BB010008BB010008BB010008AF
:10014000BB010008BB010008BB010008BB0100089F
:10015000BB010008BB010008BB010008BB0100088F
:10016000BB010008BB010008BB010008BB0100087F
:10017000BB010008BB010008BB0100080000000033
:10018000BB010008BB010008DFF810D000F06AF8DE
:100190000048004761180008AFF30080B804002051
:1001A0000648804706480047FEE7FEE7FEE7FEE711
:1001B000FEE7FEE7FEE7FEE7FEE7FEE7391200088E
:1001C000890100082DE9F05F0546002092469B4614
:1001D00088460646814640241BE02846414647465D
:1001E000224600F02FF853465A46C01A914110D3C8
:1001F00011461846224600F016F82D1A67EB010842
:100200004F4622460120002100F00DF817EB0009AF
:100210004E41201EA4F10104DFDC484631462A4647
:100220004346BDE8F09F202A04DB203A00FA02F1A1
:10023000002070479140C2F1200320FA03F31943D4
:1002400090407047202A04DB203A21FA02F0002176
:10025000704721FA02F3D040C2F1200291400843D6
:1002600019467047064C074D06E0E06840F0010370
:1002700094E8070098471034AC42F6D3FFF788FFA4
:10028000A0190008C019000800BFFEE7704701462A
:1002900091F83500022803D080204865012070477E
:1002A000052081F835000868006820F001000A6820
:1002B00010600020F3E70000F8B502460B46002569
:1002C000002400200021DCE0012606FA01F51E686A
:1002D00006EA0504AC4273D15E68012E08D05E6860
:1002E000022E05D05E68112E02D05E68122E13D148
:1002F00090684F000326BE40B0434F00DE68BE400A
:1003000030439060506801268E40B0431E79C6F39A
:1003100000168E4030435060D0684F000326BE4028
:10032000B0434F009E68BE403043D0605E68022EEE
:1003300002D05E68122E13D1CF0802F1200656F8C3
:1003400027004E07F70E0F26BE40B0434F07FF0EA3
:100350001E69BE403043CF0802F1200646F8270050
:1003600010684F000326BE40B0431E7906F0030616
:100370004F00BE40304310605E6806F08056B6F114
:10038000805F7DD100BF00260096404E366846F45F
:1003900080463E4F3E603E46366806F480460096F4
:1003A00000BF00BF3A4E8F0856F827008E07370F60
:1003B0000F26BE40B043374EB24202D1002624E0A1
:1003C0005EE0354EB24201D101261EE0334EB2420C
:1003D00001D1022619E0324EB24201D1032614E0C7
:1003E000304EB24201D104260FE02F4EB24201D16D
:1003F00005260AE02D4EB24201D1062605E02C4E1C
:10040000B24201D1072600E008268F073F0FBE4009
:1004100030431F4E8F0846F82700264E3068A04311
:100420005E6806F48036B6F5803F00D12043214E49
:100430003060361D3068A0435E6806F40036B6F5BD
:10044000003F00D120431B4E361D3060361D306802
:10045000A0435E6806F48016B6F5801F00D12043E5
:10046000144E08363060361D3068A0435E6806F4CE
:100470000016B6F5001F00D120430E4E0C3630603A
:10048000491C1029FFF420AFF8BD00004438024099
:100490000838014000000240000402400008024009
:1004A000000C0240001002400014024000180240FC
:1004B000001C0240003C01400AB1816101E00B04D4
:1004C0008361704701480068000C7047002004E019
:1004D00001480068704700000000002003480068E1
:1004E000034909780844014908607047000000206A
:1004F0000800002010B50A48006840F40070084960
:1005000008600846006840F480600860032000F03E
:100510006FF80F2000F006F800F02AF8002010BD58
:10052000003C024070B504460E4800784FF47A71E2
:10053000B1FBF0F00C490968B1FBF0F5284600F07A
:10054000DBFB08B1012070BD102C07D20022214630
:10055000501E00F00EF80548046001E00120F2E7AB
:100560000020F0E7080000200C000020040000201C
:1005700070472DE9F05F80460D461646002701F0D2
:10058000E5F8074639462A46334601F00700C0F130
:10059000070ABAF1040F02D94FF0040A01E0C0F1D2
:1005A000070AD14600F1040ABAF1070F02D24FF050
:1005B000000A01E0A0F1030AD4464FF0010A0AFA4A
:1005C00009FAAAF1010A0AEA020A0AFA0CFA4FF039
:1005D000010B0BFA0CFBABF1010B0BEA030B4AEA24
:1005E0000B042146404601F0B9F8BDE8F09F000039
:1005F00000BF00F00702064B19684FF6FF031940D1
:10060000044B0B4343EA0221014B196000BF7047C2
:100610000CED00E00000FA0570B504460D460CB97B
:10062000012070BD5848006800F00F00A84209D2B0
:1006300055490D700846006800F00F00A84201D02F
:100640000120EEE7207800F0020002281DD120787A
:1006500000F00400042805D14C48006840F4E05044
:100660004A490860207800F00800082805D147486A
:10067000006840F46040454908604448006820F044
:10068000F000A168084341490860207800F00100AB
:10069000A8B36068012807D13C4808380068C0F357
:1006A0004040B8B90120BCE76068022802D0606809
:1006B000032807D1354808380068C0F3406048B9BE
:1006C0000120AEE7314808380068C0F3400008B99F
:1006D0000120A6E72D48006820F003006168084368
:1006E0002A490860FFF7F4FE064609E0FFF7F0FE2E
:1006F000801B41F28831884202D9032091E707E04C
:100700002248006800F00C006168B0EB810FEDD169
:100710001D48006800F00F00A84209D91A490D7061
:100720000846006800F00F00A84201D0012078E7D9
:10073000207800F00400042807D11448006820F451
:10074000E050E168084311490860207800F0080093
:10075000082808D10D48006820F46040216940EA6B
:10076000C1000A49086000F019F808490968C1F396
:100770000311074A515CC8400649086006480068F2
:10078000FFF7D0FE00204CE7003C02400838024052
:10079000881900080C000020040000202DE9F04713
:1007A000002400250026A1462548006800F00C0022
:1007B00020B1042805D008283AD105E0DFF884905C
:1007C00039E0DFF8809036E01D48001F006800F037
:1007D0003F041B48001F006800F4800078B11948EE
:1007E0001749091F0968C1F38811A0FB0170014670
:1007F000224600233846FFF7E5FC05460EE0114887
:100800000F49091F0968C1F38811A0FB0170014657
:10081000224600233846FFF7D5FC05460848001F4E
:100820000068C0F30140401C4600B5FBF6F902E049
:10083000DFF8109000BF00BF4846BDE8F087000019
:100840000838024000127A00F8B504460CB90120BD
:10085000F8BD207800F00100002874D0F948006845
:1008600000F00C0004280DD0F648006800F00C00E1
:10087000082813D1F348001F006800F48000B0F589
:10088000800F0BD1EF4808380068C0F340400028C3
:1008900059D06068002856D10120D9E700BF6068B0
:1008A000B0F5803F08D1E7480838006840F4803050
:1008B000E449083908601EE06068B0F5A02F0DD14A
:1008C000E0480838006840F48020DE4908390860B4
:1008D0000846006840F4803008600CE0D9480838C9
:1008E000006820F48030D74908390860084600685D
:1008F00020F48020086000BF606890B1FFF7E8FD39
:10090000054606E0FFF7E4FD401B642801D90320FB
:100910009EE7CC4808380068C0F340400028F1D07A
:1009200011E0FFF7D5FD054606E0FFF7D1FD401BBE
:10093000642801D903208BE7C24808380068C0F357
:1009400040400028F1D1207800F0020002285FD159
:10095000BC48006800F00C0058B1BA48006800F0CC
:100960000C0008281CD1B748001F006800F4800064
:10097000B0B9B44808380068C0F3400020B1E0685E
:10098000012801D0012063E7AE480838006820F054
:10099000F800216940EAC100AA490839086037E037
:1009A000E06800B30120A8490860FFF791FD054603
:1009B00006E0FFF78DFD401B022801D9032047E721
:1009C000A04808380068C0F340000028F1D09D48D6
:1009D0000838006820F0F800216940EAC100994910
:1009E0000839086014E0002097490860FFF770FD9F
:1009F000054606E0FFF76CFD401B022801D90320E5
:100A000026E7904808380068C0F340000028F1D17C
:100A1000207800F0080008282CD16069A8B10120D6
:100A20008A490860FFF754FD054606E0FFF750FDD0
:100A3000401B022801D903200AE782486C30006875
:100A4000C0F340000028F1D014E000207F49086086
:100A5000FFF73EFD054606E0FFF73AFD401B022882
:100A600001D90320F4E677486C300068C0F34000F9
:100A70000028F1D1207800F00400042870D100276C
:100A800070483830006800F0805090B900BF0020F6
:100A900000906C483830006840F080506949383127
:100AA00008600846006800F08050009000BF00BF5A
:100AB00001276748006800F48070B0B96448006896
:100AC00040F4807062490860FFF702FD054606E0C9
:100AD000FFF7FEFC401B022801D90320B8E65C4862
:100AE000006800F480700028F2D000BFA0680128E0
:100AF00008D154486830006840F00100514968311D
:100B000008601DE0A06805280DD14E4868300068D7
:100B100040F004004B49683108600846006840F026
:100B2000010008600CE047486830006820F00100D0
:100B30004449683108600846006820F004000860F5
:100B400000BFA068A8B1FFF7C3FC054609E0FFF7A6
:100B5000BFFC401B41F28831884202D9032077E66E
:100B600026E0384868300068C0F340000028EED026
:100B700013E0FFF7ADFC054608E0FFF7A9FC401BBA
:100B800041F28831884201D9032061E62D4868305E
:100B90000068C0F340000028EFD1012F07D1294899
:100BA0003830006820F0805026493831086000BF96
:100BB000A069002845D02348006800F00C000828F0
:100BC0005DD0A069022845D100201F490866FFF7C3
:100BD0007FFC054606E0FFF77BFC401B022801D99D
:100BE000032035E6174808380068C0F34060002845
:100BF000F1D1D4E907010843616A40EA8111012279
:100C0000A06AC2EB500041EA00412C20005D41EA9D
:100C100000600C49091F086001200B490866FFF7B6
:100C200057FC054606E0FFF753FC401B022801D99C
:100C300003200DE6034808380068C0F34060002830
:100C4000F1D03FE00838024000004742800E4742A2
:100C50000070004000201C490866FFF739FC05467B
:100C600006E0FFF735FC401B022801D90320EFE521
:100C700016480068C0F340600028F2D122E0A06965
:100C8000012800D1E4E51148001D066806F4800142
:100C9000E069814214D106F03F01206A81420FD100
:100CA00047F6C0703040616A884209D106F440318D
:100CB000A06A814204D106F07061E06A814201D0ED
:100CC0000120C5E50020C3E500004742003802408E
:100CD000042808D14FF0E021096941F004014FF0E8
:100CE000E022116107E04FF0E021096921F00401E1
:100CF0004FF0E0221161704770B504462546681E2A
:100D0000B0F1807F01D301200FE0681E4FF0E02199
:100D100048610F214FF0FF3000F020FD00204FF020
:100D2000E021886107200861002070BD70B504468D
:100D30000D46164600BF94F83C00012801D1022060
:100D400070BD012084F83C0000BF022084F83D0003
:100D500036B1042E1BD0082E31D00C2E5ED145E0CA
:100D60002946206800F0F4FA2068806940F0080005
:100D7000216888612068806920F00400216888610A
:100D800020688069296908432168886147E029460D
:100D9000206800F015FB2068806940F4006021683D
:100DA00088612068806920F48060216888612068FB
:100DB0008069296940EA0120216888612FE029467D
:100DC000206800F03BFB2068C06940F00800216803
:100DD000C8612068C06920F004002168C8612068EB
:100DE000C069296908432168C86118E0294620685C
:100DF00000F060FB2068C06940F400602168C861B1
:100E00002068C06920F480602168C8612068C069DA
:100E1000296940EA01202168C86100E000BF00BFE5
:100E2000012084F83D0000BF002084F83C0000BF92
:100E300000BF85E710B504460CB9012010BD94F839
:100E40003D0028B9002084F83C00204600F00CF852
:100E5000022084F83D00211D206800F0FBF90120EC
:100E600084F83D000020E9E710B586B004461B4930
:100E70002068884230D100BF0020009018480068E8
:100E800040F48070164908600846006800F48070DD
:100E9000009000BF00BF00BF002000901048103835
:100EA000006840F020000E491039086008460068CC
:100EB00000F02000009000BF00BF48150190022004
:100EC000029001200390022004900920059001A9BE
:100ED0000448FFF7F1F900BF06B010BD0020004044
:100EE000403802400014024070B504460E4601220C
:100EF0003146206800F01AFA0F492068884203D072
:100F00000E492068884201D1012000E0002028B16C
:100F10002068406C40F40040216848642068806884
:100F200000F00705062D05D02068006840F001009C
:100F300021680860002070BD0000014000040140ED
:100F4000704700002DE9F0470446206805682068D6
:100F5000C668206847694FF00008C14605F00F08D1
:100F6000B8F1000F0AD105F0200038B106F02000DA
:100F700020B1204600F01CFBBDE8F087B8F1000F5F
:100F800072D007F0010018B906F4907000286BD0F9
:100F900005F0010030B106F4807018B1E06B40F04C
:100FA0000100E06305F0040030B107F0010018B162
:100FB000E06B40F00200E06305F0020030B107F0A2
:100FC000010018B1E06B40F00400E06305F0080098
:100FD00048B106F0200010B907F0010018B1E06B2D
:100FE00040F00800E063E06B70B305F0200028B12A
:100FF00006F0200010B1204600F0DAFA20684069BF
:10100000C0F38019E06B00F0080010B9B9F1000FCF
:1010100023D0204600F0ACFA2068406900F0400080
:10102000402816D12068406920F0400021684861BE
:10103000606B50B11748616B0865606BFFF727F96B
:1010400010B1606B016D88470CE02046FFF778FF18
:1010500008E02046FFF774FF04E02046FFF770FF2A
:101060000020E06388E7FFE705F0800030B106F07C
:10107000800018B1204600F0EEFA7DE705F0400050
:1010800030B106F0400018B1204600F081FA73E755
:1010900000BF71E75D15000810B5034693F83A00EC
:1010A00020282FD101B10AB9012010BD00BF93F84B
:1010B0003800012801D10220F7E7012083F8380029
:1010C00000BF99629A85DA850020D863222083F8D0
:1010D0003A0000BF002083F8380000BF1868C068DD
:1010E00040F480701C68E0601868406940F00100BE
:1010F0001C6860611868C06840F020001C68E060EF
:101100000020D2E70220D0E738B50446074920681E
:1011100088420AD1A06A10F8010C00904FF47A734B
:1011200001226946024800F005F838BD0048004039
:10113000740000202DE9F84304460D4616461F466C
:101140004FF0000994F8390020285DD105B116B997
:101150000120BDE8F88300BF94F83800012801D1D0
:101160000220F6E7012084F8380000BF0020E06389
:10117000212084F83900FFF7ABF98146A684E68484
:1011800000BF002084F8380000BF2BE0E08C401E38
:10119000E084A068B0F5805F16D14B460022802124
:1011A0002046009700F08BFA08B10320D1E7A8464B
:1011B000B8F80000C0F3080021684860206908B949
:1011C000AD1C0FE06D1C0DE04B4600228021204637
:1011D000009700F074FA08B10320BAE715F8010B84
:1011E00021684860E08C0028D0D14B460022402185
:1011F0002046009700F063FA08B10320A9E72020F9
:1012000084F839000020A4E70220A2E7704700BF5D
:10121000FEE700BFFEE770477047704710B5FFF765
:101220005DF910BD10B504460420FFF751FD0148DB
:10123000046010BD100000200548006840F47000F4
:10124000034908604FF00060014980390860704729
:1012500088ED00E010B50268294B98420ED0B0F13D
:10126000804F0BD0274B984208D0274B984205D08F
:10127000264B984202D0264B984203D122F07002AE
:101280004B681A431E4B984220D0B0F1804F1DD0BE
:101290001C4B98421AD01C4B984217D01B4B9842BB
:1012A00014D01B4B984211D01A4B98420ED01A4BB7
:1012B00098420BD0194B984208D0194B984205D050
:1012C000184B984202D0184B984203D122F4407236
:1012D000CB681A4322F080034C6943EA040202609F
:1012E0008B68C3620B688362054B984202D0084B3F
:1012F000984201D10B6903630123436110BD0000D3
:10130000000001400004004000080040000C0040C4
:1013100000040140004001400044014000480140F9
:1013200000180040001C00400020004030B501F0D3
:101330001F05012404FA05F3046A9C430462046A4D
:1013400001F01F0502FA05F52C43046230BD0000D0
:1013500030B5056A25F001050562026A43688469B3
:1013600024F0700424F003040D682C4322F00202E0
:101370008D682A43104DA84200D103E00F4DA842CA
:1013800006D100BF22F00802CD682A4322F00402F1
:10139000094DA84202D0094DA84207D123F4807319
:1013A00023F400734D692B438D692B4343608461A3
:1013B0004D684563026230BD0000014000040140F9
:1013C00030B5056A25F010050562026A4368846934
:1013D00024F4E04424F440740D6844EA052422F027
:1013E00020028D6842EA0512124DA84200D103E0A6
:1013F000114DA84207D100BF22F08002CD6842EA19
:10140000051222F040020B4DA84202D00A4DA8421C
:1014100009D123F4806323F400634D6943EA850313
:101420008D6943EA8503436084614D688563026288
:1014300030BD0000000001400004014030B5056AE5
:1014400025F480750562026A4368C46924F070045B
:1014500024F003040D682C4322F400728D6842EAE4
:101460000522124DA84200D103E0114DA84207D138
:1014700000BF22F40062CD6842EA052222F48062B5
:101480000A4DA84202D00A4DA84209D123F4805344
:1014900023F400534D6943EA05138D6943EA0513AC
:1014A0004360C4614D68C563026230BD0000014005
:1014B0000004014030B5056A25F480550562036AD1
:1014C0004468C26922F4E04222F440720D6842EAA4
:1014D000052223F400538D6843EA0533084DA842E2
:1014E00002D0084DA84204D124F480444D6944EA56
:1014F00085144460C2614D680564036230BD00001C
:10150000000001400004014070B504460D4610483B
:10151000104908600846C46045600021816001618F
:10152000FFF788FC60200C490860204604EBD0716E
:101530004910094A5160022011468860002205487E
:10154000FFF7F4FB00210348FFF7CEFC70BD00005D
:1015500000200040180000205800002070B505460B
:10156000AC6B0020E085E0842046FFF7E9FC70BD0D
:101570000168C96821F490710268D1600168496905
:1015800021F0010102685161202180F83A10704772
:1015900010B504462068C06820F040002168C8608B
:1015A000202084F839002046FFF730FE002010BDCF
:1015B00070B5044694F83A0022284AD1A068B0F5E4
:1015C000805F13D1A56A206940B920684068C0F3E4
:1015D00008002880A06A801CA06219E0206840688A
:1015E000C0B22880A06A401CA06211E0206938B90E
:1015F00020684068C1B2A26A501CA062117007E066
:101600002068406800F07F01A26A501CA06211703F
:10161000E08D401E80B2E085C8B92068C06820F027
:1016200020002168C8602068C06820F480702168AC
:10163000C8602068406920F00100216848612020CE
:1016400084F83A002046FFF75FFD002070BD0020BF
:10165000FCE70220FAE7014691F8390021282CD155
:101660008868B0F5805F0FD10A6A1088C0F308005F
:101670000B685860086918B9086A801C086209E09C
:10168000086A401C086205E00B6A581C086218785A
:101690000B685860C88C401E80B2C88458B908686E
:1016A000C06820F080000B68D8600868C06840F00F
:1016B00040000B68D860002070470220FCE72DE94D
:1016C000F04104460D4617469846069E21E0701CE0
:1016D000F8B12EB1FEF7FCFEA0EB0800B04218D91D
:1016E0002068C06820F4D0702168C8602068406914
:1016F00020F0010021684861202084F8390084F836
:101700003A0000BF002084F8380000BF0320BDE885
:10171000F081206800682840A84201D1012000E043
:101720000020B842D3D00020F1E7000010B50448F3
:10173000FFF708FC012203490148FFF7ADFC10BD8B
:10174000740000201400002000BFFEE7024800687B
:10175000C0F30220704700000CED00E010B5002837
:1017600004DB0A07130E054A135406E00A07140E99
:10177000034A00F00F031B1FD45410BD00E400E027
:1017800018ED00E002E008C8121F08C1002AFAD1D3
:1017900070477047002001E001C1121F002AFBD1F1
:1017A000704730B50446002504E04FF47A7000F02D
:1017B00005F86D1CA542F8D330BD000070B5034696
:1017C00000224FF0E02675690D4E366803FB06F4E3
:1017D0004FF0E026B16910E04FF0E026B069884292
:1017E0000BD0884202D20E1A324402E02E1A0E4466
:1017F00032440146A24200D300E0EDE700BF70BDD5
:101800001000002000B587B000BF002001901248F2
:10181000006840F02000104908600846006800F0A9
:101820002000019000BF00BF4FF4C0600290012073
:10183000039004900220059002A90848FEF73CFDA1
:10184000012251020548FEF737FE012291020348AA
:10185000FEF732FE07B000BD3038024000140240EF
:1018600001250024FEF746FE0723022208214FF43B
:10187000A87000F023F8A820FFF7D4FCFFF7C2FF00
:10188000532140F2F310FFF73FFE10E00820FFF76E
:1018900088FF0DB1641C00E0641EB4F5C87F00D958
:1018A00000250A2C00D10125204600F001F8EDE7C3
:1018B0000149486370470000002000402DE9F041D5
:1018C00092B00446884615461E46002700BF0020F9
:1018D00000902A48006840F0805028490860084677
:1018E000006800F08050009000BF00BF00BF0020E3
:1018F00000902348006840F4804021490860084671
:10190000006800F48040009000BF00BF01200690F6
:101910000004079002200C9041050D91CDF838800D
:101920000F941095119606A8FEF78EFF07460FB18B
:1019300000BFFEE70F2001900220029000200390DC
:101940004FF4A05004904FF480500590052101A859
:10195000FEF762FE07460FB100BFFEE7FEF7B2FDDD
:1019600041F20101884205D10648006840F48070C8
:101970000449086012B0BDE8F08100004038024020
:1019800000700040003C0240000000000000000029
:101990000102030406070809000000000102030415
:1019A000C01900080000002018000000841700087B
:1019B000D819000818000020A0040000941700089F
:1019C0000000000010000000010000000024F400EE
:0819D00000000000000000000F
:040000050800018965
:00000001FF
